{
  "_format": "hh-sol-artifact-1",
  "contractName": "yieldpool",
  "sourceName": "contracts/yieldpool.sol",
  "abi": [
    {
      "inputs": [],
      "name": "InvalidInitialization",
      "type": "error"
    },
    {
      "inputs": [],
      "name": "NotInitializing",
      "type": "error"
    },
    {
      "inputs": [
        {
          "internalType": "address",
          "name": "owner",
          "type": "address"
        }
      ],
      "name": "OwnableInvalidOwner",
      "type": "error"
    },
    {
      "inputs": [
        {
          "internalType": "address",
          "name": "account",
          "type": "address"
        }
      ],
      "name": "OwnableUnauthorizedAccount",
      "type": "error"
    },
    {
      "anonymous": false,
      "inputs": [
        {
          "indexed": false,
          "internalType": "uint64",
          "name": "version",
          "type": "uint64"
        }
      ],
      "name": "Initialized",
      "type": "event"
    },
    {
      "anonymous": false,
      "inputs": [
        {
          "indexed": true,
          "internalType": "address",
          "name": "previousOwner",
          "type": "address"
        },
        {
          "indexed": true,
          "internalType": "address",
          "name": "newOwner",
          "type": "address"
        }
      ],
      "name": "OwnershipTransferred",
      "type": "event"
    },
    {
      "inputs": [
        {
          "internalType": "uint256",
          "name": "amount",
          "type": "uint256"
        }
      ],
      "name": "deposit",
      "outputs": [],
      "stateMutability": "nonpayable",
      "type": "function"
    },
    {
      "inputs": [
        {
          "internalType": "contract IERC20",
          "name": "addressUsdt",
          "type": "address"
        },
        {
          "internalType": "contract ILending",
          "name": "_lendingContract",
          "type": "address"
        },
        {
          "internalType": "contract IStaking",
          "name": "_stakingContract",
          "type": "address"
        }
      ],
      "name": "initialize",
      "outputs": [],
      "stateMutability": "nonpayable",
      "type": "function"
    },
    {
      "inputs": [],
      "name": "lendingContract",
      "outputs": [
        {
          "internalType": "contract ILending",
          "name": "",
          "type": "address"
        }
      ],
      "stateMutability": "view",
      "type": "function"
    },
    {
      "inputs": [],
      "name": "lendingRatio",
      "outputs": [
        {
          "internalType": "uint256",
          "name": "",
          "type": "uint256"
        }
      ],
      "stateMutability": "view",
      "type": "function"
    },
    {
      "inputs": [],
      "name": "maxDeposit",
      "outputs": [
        {
          "internalType": "uint256",
          "name": "",
          "type": "uint256"
        }
      ],
      "stateMutability": "view",
      "type": "function"
    },
    {
      "inputs": [],
      "name": "minDeposit",
      "outputs": [
        {
          "internalType": "uint256",
          "name": "",
          "type": "uint256"
        }
      ],
      "stateMutability": "view",
      "type": "function"
    },
    {
      "inputs": [],
      "name": "owner",
      "outputs": [
        {
          "internalType": "address",
          "name": "",
          "type": "address"
        }
      ],
      "stateMutability": "view",
      "type": "function"
    },
    {
      "inputs": [
        {
          "internalType": "address",
          "name": "",
          "type": "address"
        }
      ],
      "name": "profiles",
      "outputs": [
        {
          "internalType": "uint256",
          "name": "lentAmount",
          "type": "uint256"
        },
        {
          "internalType": "uint256",
          "name": "stakedAmount",
          "type": "uint256"
        },
        {
          "internalType": "uint256",
          "name": "id",
          "type": "uint256"
        }
      ],
      "stateMutability": "view",
      "type": "function"
    },
    {
      "inputs": [],
      "name": "renounceOwnership",
      "outputs": [],
      "stateMutability": "nonpayable",
      "type": "function"
    },
    {
      "inputs": [],
      "name": "stakingContract",
      "outputs": [
        {
          "internalType": "contract IStaking",
          "name": "",
          "type": "address"
        }
      ],
      "stateMutability": "view",
      "type": "function"
    },
    {
      "inputs": [],
      "name": "stakingRatio",
      "outputs": [
        {
          "internalType": "uint256",
          "name": "",
          "type": "uint256"
        }
      ],
      "stateMutability": "view",
      "type": "function"
    },
    {
      "inputs": [
        {
          "internalType": "address",
          "name": "newOwner",
          "type": "address"
        }
      ],
      "name": "transferOwnership",
      "outputs": [],
      "stateMutability": "nonpayable",
      "type": "function"
    },
    {
      "inputs": [],
      "name": "usdtToken",
      "outputs": [
        {
          "internalType": "contract IERC20",
          "name": "",
          "type": "address"
        }
      ],
      "stateMutability": "view",
      "type": "function"
    },
    {
      "inputs": [
        {
          "internalType": "address",
          "name": "user",
          "type": "address"
        }
      ],
      "name": "viewReturns",
      "outputs": [
        {
          "internalType": "uint256",
          "name": "",
          "type": "uint256"
        }
      ],
      "stateMutability": "view",
      "type": "function"
    },
    {
      "inputs": [],
      "name": "withdraw",
      "outputs": [],
      "stateMutability": "nonpayable",
      "type": "function"
    },
    {
      "inputs": [],
      "name": "withdrawFunds",
      "outputs": [],
      "stateMutability": "nonpayable",
      "type": "function"
    }
  ],
  "bytecode": "0x608060405234801561001057600080fd5b50611818806100206000396000f3fe608060405234801561001057600080fd5b50600436106101005760003560e01c8063b4cd792d11610097578063c0c53b8b11610066578063c0c53b8b14610255578063ee99205c14610271578063f2fde38b1461028f578063f4aa673f146102ab57610100565b8063b4cd792d146101b9578063b6b55f25146101e9578063b9e213ba14610205578063bbe156271461022357610100565b80636083e59a116100d35780636083e59a14610155578063715018a6146101735780638da5cb5b1461017d578063a98ad46c1461019b57610100565b806324600fc3146101055780633ccfd60b1461010f5780633e6e94971461011957806341b3d18514610137575b600080fd5b61010d6102c9565b005b610117610455565b005b6101216105e1565b60405161012e919061117b565b60405180910390f35b61013f6105e7565b60405161014c919061117b565b60405180910390f35b61015d6105ed565b60405161016a919061117b565b60405180910390f35b61017b6105f3565b005b610185610607565b60405161019291906111d7565b60405180910390f35b6101a361063f565b6040516101b09190611251565b60405180910390f35b6101d360048036038101906101ce919061129d565b610663565b6040516101e0919061117b565b60405180910390f35b61020360048036038101906101fe91906112f6565b610755565b005b61020d610c58565b60405161021a919061117b565b60405180910390f35b61023d6004803603810190610238919061129d565b610c5e565b60405161024c93929190611323565b60405180910390f35b61026f600480360381019061026a9190611414565b610c88565b005b610279610eda565b6040516102869190611488565b60405180910390f35b6102a960048036038101906102a4919061129d565b610f00565b005b6102b3610f86565b6040516102c091906114c4565b60405180910390f35b6000600760003373ffffffffffffffffffffffffffffffffffffffff1673ffffffffffffffffffffffffffffffffffffffff1681526020019081526020016000206002015490506000600160009054906101000a900473ffffffffffffffffffffffffffffffffffffffff1673ffffffffffffffffffffffffffffffffffffffff1663155dd5ee836040518263ffffffff1660e01b815260040161036d919061117b565b6020604051808303816000875af115801561038c573d6000803e3d6000fd5b505050506040513d601f19601f820116820180604052508101906103b091906114f4565b905060008054906101000a900473ffffffffffffffffffffffffffffffffffffffff1673ffffffffffffffffffffffffffffffffffffffff1663a9059cbb33836040518363ffffffff1660e01b815260040161040d929190611521565b6020604051808303816000875af115801561042c573d6000803e3d6000fd5b505050506040513d601f19601f820116820180604052508101906104509190611582565b505050565b6000600760003373ffffffffffffffffffffffffffffffffffffffff1673ffffffffffffffffffffffffffffffffffffffff1681526020019081526020016000206002015490506000600160009054906101000a900473ffffffffffffffffffffffffffffffffffffffff1673ffffffffffffffffffffffffffffffffffffffff16632e1a7d4d836040518263ffffffff1660e01b81526004016104f9919061117b565b6020604051808303816000875af1158015610518573d6000803e3d6000fd5b505050506040513d601f19601f8201168201806040525081019061053c91906114f4565b905060008054906101000a900473ffffffffffffffffffffffffffffffffffffffff1673ffffffffffffffffffffffffffffffffffffffff1663a9059cbb33836040518363ffffffff1660e01b8152600401610599929190611521565b6020604051808303816000875af11580156105b8573d6000803e3d6000fd5b505050506040513d601f19601f820116820180604052508101906105dc9190611582565b505050565b60045481565b60055481565b60065481565b6105fb610fac565b6106056000611033565b565b60008061061261110a565b90508060000160009054906101000a900473ffffffffffffffffffffffffffffffffffffffff1691505090565b60008054906101000a900473ffffffffffffffffffffffffffffffffffffffff1681565b600080600760008473ffffffffffffffffffffffffffffffffffffffff1673ffffffffffffffffffffffffffffffffffffffff1681526020019081526020016000206002015490506000600160009054906101000a900473ffffffffffffffffffffffffffffffffffffffff1673ffffffffffffffffffffffffffffffffffffffff16632f2d8f8c836040518263ffffffff1660e01b8152600401610708919061117b565b602060405180830381865afa158015610725573d6000803e3d6000fd5b505050506040513d601f19601f8201168201806040525081019061074991906114f4565b90508092505050919050565b60008054906101000a900473ffffffffffffffffffffffffffffffffffffffff1673ffffffffffffffffffffffffffffffffffffffff166323b872dd3330846040518463ffffffff1660e01b81526004016107b2939291906115af565b6020604051808303816000875af11580156107d1573d6000803e3d6000fd5b505050506040513d601f19601f820116820180604052508101906107f59190611582565b506000600760003373ffffffffffffffffffffffffffffffffffffffff1673ffffffffffffffffffffffffffffffffffffffff1681526020019081526020016000206000015403610a255760008054906101000a900473ffffffffffffffffffffffffffffffffffffffff1673ffffffffffffffffffffffffffffffffffffffff1663095ea7b3600160009054906101000a900473ffffffffffffffffffffffffffffffffffffffff166064600354856108af9190611615565b6108b99190611686565b6040518363ffffffff1660e01b81526004016108d6929190611521565b6020604051808303816000875af11580156108f5573d6000803e3d6000fd5b505050506040513d601f19601f820116820180604052508101906109199190611582565b506000600160009054906101000a900473ffffffffffffffffffffffffffffffffffffffff1673ffffffffffffffffffffffffffffffffffffffff1663e2bbb158600060646003548661096c9190611615565b6109769190611686565b6040518363ffffffff1660e01b81526004016109939291906116f2565b6020604051808303816000875af11580156109b2573d6000803e3d6000fd5b505050506040513d601f19601f820116820180604052508101906109d691906114f4565b905080600760003373ffffffffffffffffffffffffffffffffffffffff1673ffffffffffffffffffffffffffffffffffffffff1681526020019081526020016000206002018190555050610bfc565b60008054906101000a900473ffffffffffffffffffffffffffffffffffffffff1673ffffffffffffffffffffffffffffffffffffffff1663095ea7b3600160009054906101000a900473ffffffffffffffffffffffffffffffffffffffff16606460035485610a949190611615565b610a9e9190611686565b6040518363ffffffff1660e01b8152600401610abb929190611521565b6020604051808303816000875af1158015610ada573d6000803e3d6000fd5b505050506040513d601f19601f82011682018060405250810190610afe9190611582565b50600160009054906101000a900473ffffffffffffffffffffffffffffffffffffffff1673ffffffffffffffffffffffffffffffffffffffff1663e2bbb158600760003373ffffffffffffffffffffffffffffffffffffffff1673ffffffffffffffffffffffffffffffffffffffff16815260200190815260200160002060020154606460035485610b909190611615565b610b9a9190611686565b6040518363ffffffff1660e01b8152600401610bb792919061171b565b6020604051808303816000875af1158015610bd6573d6000803e3d6000fd5b505050506040513d601f19601f82011682018060405250810190610bfa91906114f4565b505b80600760003373ffffffffffffffffffffffffffffffffffffffff1673ffffffffffffffffffffffffffffffffffffffff1681526020019081526020016000206000016000828254610c4e9190611744565b9250508190555050565b60035481565b60076020528060005260406000206000915090508060000154908060010154908060020154905083565b6000610c92611132565b905060008160000160089054906101000a900460ff1615905060008260000160009054906101000a900467ffffffffffffffff1690506000808267ffffffffffffffff16148015610ce05750825b9050600060018367ffffffffffffffff16148015610d15575060003073ffffffffffffffffffffffffffffffffffffffff163b145b905081158015610d23575080155b15610d5a576040517ff92ee8a900000000000000000000000000000000000000000000000000000000815260040160405180910390fd5b60018560000160006101000a81548167ffffffffffffffff021916908367ffffffffffffffff1602179055508315610daa5760018560000160086101000a81548160ff0219169083151502179055505b876000806101000a81548173ffffffffffffffffffffffffffffffffffffffff021916908373ffffffffffffffffffffffffffffffffffffffff16021790555086600160006101000a81548173ffffffffffffffffffffffffffffffffffffffff021916908373ffffffffffffffffffffffffffffffffffffffff16021790555085600260006101000a81548173ffffffffffffffffffffffffffffffffffffffff021916908373ffffffffffffffffffffffffffffffffffffffff16021790555060646003819055508315610ed05760008560000160086101000a81548160ff0219169083151502179055507fc7f505b2f371ae2175ee4913f4499e1f2633a7b5936321eed1cdaeb6115181d26001604051610ec791906117c7565b60405180910390a15b5050505050505050565b600260009054906101000a900473ffffffffffffffffffffffffffffffffffffffff1681565b610f08610fac565b600073ffffffffffffffffffffffffffffffffffffffff168173ffffffffffffffffffffffffffffffffffffffff1603610f7a5760006040517f1e4fbdf7000000000000000000000000000000000000000000000000000000008152600401610f7191906111d7565b60405180910390fd5b610f8381611033565b50565b600160009054906101000a900473ffffffffffffffffffffffffffffffffffffffff1681565b610fb461115a565b73ffffffffffffffffffffffffffffffffffffffff16610fd2610607565b73ffffffffffffffffffffffffffffffffffffffff161461103157610ff561115a565b6040517f118cdaa700000000000000000000000000000000000000000000000000000000815260040161102891906111d7565b60405180910390fd5b565b600061103d61110a565b905060008160000160009054906101000a900473ffffffffffffffffffffffffffffffffffffffff169050828260000160006101000a81548173ffffffffffffffffffffffffffffffffffffffff021916908373ffffffffffffffffffffffffffffffffffffffff1602179055508273ffffffffffffffffffffffffffffffffffffffff168173ffffffffffffffffffffffffffffffffffffffff167f8be0079c531659141344cd1fd0a4f28419497f9722a3daafe3b4186f6b6457e060405160405180910390a3505050565b60007f9016d09d72d40fdae2fd8ceac6b6234c7706214fd39c1cd1e609a0528c199300905090565b60007ff0c57e16840df040f15088dc2f81fe391c3923bec73e23a9662efc9c229c6a00905090565b600033905090565b6000819050919050565b61117581611162565b82525050565b6000602082019050611190600083018461116c565b92915050565b600073ffffffffffffffffffffffffffffffffffffffff82169050919050565b60006111c182611196565b9050919050565b6111d1816111b6565b82525050565b60006020820190506111ec60008301846111c8565b92915050565b6000819050919050565b600061121761121261120d84611196565b6111f2565b611196565b9050919050565b6000611229826111fc565b9050919050565b600061123b8261121e565b9050919050565b61124b81611230565b82525050565b60006020820190506112666000830184611242565b92915050565b600080fd5b61127a816111b6565b811461128557600080fd5b50565b60008135905061129781611271565b92915050565b6000602082840312156112b3576112b261126c565b5b60006112c184828501611288565b91505092915050565b6112d381611162565b81146112de57600080fd5b50565b6000813590506112f0816112ca565b92915050565b60006020828403121561130c5761130b61126c565b5b600061131a848285016112e1565b91505092915050565b6000606082019050611338600083018661116c565b611345602083018561116c565b611352604083018461116c565b949350505050565b6000611365826111b6565b9050919050565b6113758161135a565b811461138057600080fd5b50565b6000813590506113928161136c565b92915050565b60006113a3826111b6565b9050919050565b6113b381611398565b81146113be57600080fd5b50565b6000813590506113d0816113aa565b92915050565b60006113e1826111b6565b9050919050565b6113f1816113d6565b81146113fc57600080fd5b50565b60008135905061140e816113e8565b92915050565b60008060006060848603121561142d5761142c61126c565b5b600061143b86828701611383565b935050602061144c868287016113c1565b925050604061145d868287016113ff565b9150509250925092565b60006114728261121e565b9050919050565b61148281611467565b82525050565b600060208201905061149d6000830184611479565b92915050565b60006114ae8261121e565b9050919050565b6114be816114a3565b82525050565b60006020820190506114d960008301846114b5565b92915050565b6000815190506114ee816112ca565b92915050565b60006020828403121561150a5761150961126c565b5b6000611518848285016114df565b91505092915050565b600060408201905061153660008301856111c8565b611543602083018461116c565b9392505050565b60008115159050919050565b61155f8161154a565b811461156a57600080fd5b50565b60008151905061157c81611556565b92915050565b6000602082840312156115985761159761126c565b5b60006115a68482850161156d565b91505092915050565b60006060820190506115c460008301866111c8565b6115d160208301856111c8565b6115de604083018461116c565b949350505050565b7f4e487b7100000000000000000000000000000000000000000000000000000000600052601160045260246000fd5b600061162082611162565b915061162b83611162565b925082820261163981611162565b915082820484148315176116505761164f6115e6565b5b5092915050565b7f4e487b7100000000000000000000000000000000000000000000000000000000600052601260045260246000fd5b600061169182611162565b915061169c83611162565b9250826116ac576116ab611657565b5b828204905092915050565b6000819050919050565b60006116dc6116d76116d2846116b7565b6111f2565b611162565b9050919050565b6116ec816116c1565b82525050565b600060408201905061170760008301856116e3565b611714602083018461116c565b9392505050565b6000604082019050611730600083018561116c565b61173d602083018461116c565b9392505050565b600061174f82611162565b915061175a83611162565b9250828201905080821115611772576117716115e6565b5b92915050565b6000819050919050565b600067ffffffffffffffff82169050919050565b60006117b16117ac6117a784611778565b6111f2565b611782565b9050919050565b6117c181611796565b82525050565b60006020820190506117dc60008301846117b8565b9291505056fea26469706673582212208bfc2896145226e6afee17d891fe1b619107e9f4cae58d66c19076084bf4526864736f6c63430008180033",
  "linkReferences": {},
  "deployedLinkReferences": {}
}