{
  "_format": "hh-sol-artifact-1",
  "contractName": "Lending",
  "sourceName": "contracts/lending.sol",
  "abi": [
    {
      "inputs": [],
      "name": "InvalidInitialization",
      "type": "error"
    },
    {
      "inputs": [],
      "name": "NotInitializing",
      "type": "error"
    },
    {
      "inputs": [
        {
          "internalType": "address",
          "name": "owner",
          "type": "address"
        }
      ],
      "name": "OwnableInvalidOwner",
      "type": "error"
    },
    {
      "inputs": [
        {
          "internalType": "address",
          "name": "account",
          "type": "address"
        }
      ],
      "name": "OwnableUnauthorizedAccount",
      "type": "error"
    },
    {
      "anonymous": false,
      "inputs": [
        {
          "indexed": false,
          "internalType": "uint64",
          "name": "version",
          "type": "uint64"
        }
      ],
      "name": "Initialized",
      "type": "event"
    },
    {
      "anonymous": false,
      "inputs": [
        {
          "indexed": true,
          "internalType": "address",
          "name": "previousOwner",
          "type": "address"
        },
        {
          "indexed": true,
          "internalType": "address",
          "name": "newOwner",
          "type": "address"
        }
      ],
      "name": "OwnershipTransferred",
      "type": "event"
    },
    {
      "inputs": [],
      "name": "admin",
      "outputs": [
        {
          "internalType": "address",
          "name": "",
          "type": "address"
        }
      ],
      "stateMutability": "view",
      "type": "function"
    },
    {
      "inputs": [
        {
          "internalType": "uint256",
          "name": "id",
          "type": "uint256"
        }
      ],
      "name": "calculateCurrentRewards",
      "outputs": [
        {
          "internalType": "uint256",
          "name": "",
          "type": "uint256"
        }
      ],
      "stateMutability": "view",
      "type": "function"
    },
    {
      "inputs": [
        {
          "internalType": "uint256",
          "name": "id",
          "type": "uint256"
        },
        {
          "internalType": "uint256",
          "name": "timestamp",
          "type": "uint256"
        }
      ],
      "name": "calculateRewards",
      "outputs": [
        {
          "internalType": "uint256",
          "name": "",
          "type": "uint256"
        }
      ],
      "stateMutability": "view",
      "type": "function"
    },
    {
      "inputs": [],
      "name": "cycleDuration",
      "outputs": [
        {
          "internalType": "uint256",
          "name": "",
          "type": "uint256"
        }
      ],
      "stateMutability": "view",
      "type": "function"
    },
    {
      "inputs": [
        {
          "internalType": "uint256",
          "name": "id",
          "type": "uint256"
        },
        {
          "internalType": "uint256",
          "name": "amount",
          "type": "uint256"
        }
      ],
      "name": "deposit",
      "outputs": [
        {
          "internalType": "uint256",
          "name": "",
          "type": "uint256"
        }
      ],
      "stateMutability": "nonpayable",
      "type": "function"
    },
    {
      "inputs": [
        {
          "internalType": "contract IERC20",
          "name": "addressUsdt",
          "type": "address"
        },
        {
          "internalType": "address",
          "name": "_admin",
          "type": "address"
        },
        {
          "internalType": "uint256",
          "name": "_cycleDuration",
          "type": "uint256"
        },
        {
          "internalType": "uint256",
          "name": "_rate",
          "type": "uint256"
        }
      ],
      "name": "initialize",
      "outputs": [],
      "stateMutability": "nonpayable",
      "type": "function"
    },
    {
      "inputs": [],
      "name": "lendingCounter",
      "outputs": [
        {
          "internalType": "uint256",
          "name": "",
          "type": "uint256"
        }
      ],
      "stateMutability": "view",
      "type": "function"
    },
    {
      "inputs": [
        {
          "internalType": "uint256",
          "name": "",
          "type": "uint256"
        }
      ],
      "name": "lentInfo",
      "outputs": [
        {
          "internalType": "address",
          "name": "owner",
          "type": "address"
        },
        {
          "internalType": "uint256",
          "name": "amount",
          "type": "uint256"
        },
        {
          "internalType": "uint256",
          "name": "unrealisedRewards",
          "type": "uint256"
        },
        {
          "internalType": "uint256",
          "name": "timestamp",
          "type": "uint256"
        }
      ],
      "stateMutability": "view",
      "type": "function"
    },
    {
      "inputs": [],
      "name": "owner",
      "outputs": [
        {
          "internalType": "address",
          "name": "",
          "type": "address"
        }
      ],
      "stateMutability": "view",
      "type": "function"
    },
    {
      "inputs": [],
      "name": "rate",
      "outputs": [
        {
          "internalType": "uint256",
          "name": "",
          "type": "uint256"
        }
      ],
      "stateMutability": "view",
      "type": "function"
    },
    {
      "inputs": [],
      "name": "renounceOwnership",
      "outputs": [],
      "stateMutability": "nonpayable",
      "type": "function"
    },
    {
      "inputs": [
        {
          "internalType": "address",
          "name": "newOwner",
          "type": "address"
        }
      ],
      "name": "transferOwnership",
      "outputs": [],
      "stateMutability": "nonpayable",
      "type": "function"
    },
    {
      "inputs": [],
      "name": "usdtToken",
      "outputs": [
        {
          "internalType": "contract IERC20",
          "name": "",
          "type": "address"
        }
      ],
      "stateMutability": "view",
      "type": "function"
    },
    {
      "inputs": [
        {
          "internalType": "uint256",
          "name": "id",
          "type": "uint256"
        }
      ],
      "name": "withdraw",
      "outputs": [
        {
          "internalType": "uint256",
          "name": "",
          "type": "uint256"
        }
      ],
      "stateMutability": "nonpayable",
      "type": "function"
    },
    {
      "inputs": [
        {
          "internalType": "uint256",
          "name": "id",
          "type": "uint256"
        }
      ],
      "name": "withdrawFunds",
      "outputs": [
        {
          "internalType": "uint256",
          "name": "",
          "type": "uint256"
        }
      ],
      "stateMutability": "nonpayable",
      "type": "function"
    }
  ],
  "bytecode": "0x608060405234801561001057600080fd5b506115a3806100206000396000f3fe608060405234801561001057600080fd5b50600436106100f55760003560e01c8063715018a611610097578063e2bbb15811610066578063e2bbb1581461028d578063eb990c59146102bd578063f2fde38b146102d9578063f851a440146102f5576100f5565b8063715018a6146102295780638da5cb5b146102335780638eaa860014610251578063a98ad46c1461026f576100f5565b80632e1a7d4d116100d35780632e1a7d4d1461017b5780632f2d8f8c146101ab57806348a88706146101db5780635bec4cb41461020b576100f5565b80630e2832e5146100fa578063155dd5ee1461012d5780632c4e722e1461015d575b600080fd5b610114600480360381019061010f919061100d565b610313565b604051610124949392919061108a565b60405180910390f35b6101476004803603810190610142919061100d565b610363565b60405161015491906110cf565b60405180910390f35b6101656104c0565b60405161017291906110cf565b60405180910390f35b6101956004803603810190610190919061100d565b6104c6565b6040516101a291906110cf565b60405180910390f35b6101c560048036038101906101c0919061100d565b6105e6565b6040516101d291906110cf565b60405180910390f35b6101f560048036038101906101f091906110ea565b6106d9565b60405161020291906110cf565b60405180910390f35b6102136107cd565b60405161022091906110cf565b60405180910390f35b6102316107d3565b005b61023b6107e7565b604051610248919061112a565b60405180910390f35b61025961081f565b60405161026691906110cf565b60405180910390f35b610277610825565b60405161028491906111a4565b60405180910390f35b6102a760048036038101906102a291906110ea565b61084b565b6040516102b491906110cf565b60405180910390f35b6102d760048036038101906102d29190611229565b610b53565b005b6102f360048036038101906102ee9190611290565b610d72565b005b6102fd610df8565b60405161030a919061112a565b60405180910390f35b60056020528060005260406000206000915090508060000160009054906101000a900473ffffffffffffffffffffffffffffffffffffffff16908060010154908060020154908060030154905084565b60008042905060006005600085815260200190815260200160002060000160009054906101000a900473ffffffffffffffffffffffffffffffffffffffff16905060006103b085846106d9565b60056000878152602001908152602001600020600101546103d191906112ec565b90508260056000878152602001908152602001600020600301819055506000600560008781526020019081526020016000206002018190555060006005600087815260200190815260200160002060010181905550600360009054906101000a900473ffffffffffffffffffffffffffffffffffffffff1673ffffffffffffffffffffffffffffffffffffffff166340c10f1983836040518363ffffffff1660e01b8152600401610483929190611320565b600060405180830381600087803b15801561049d57600080fd5b505af11580156104b1573d6000803e3d6000fd5b50505050809350505050919050565b60025481565b60008042905060006005600085815260200190815260200160002060000160009054906101000a900473ffffffffffffffffffffffffffffffffffffffff169050600061051385846106d9565b905082600560008781526020019081526020016000206003018190555060006005600087815260200190815260200160002060020181905550600360009054906101000a900473ffffffffffffffffffffffffffffffffffffffff1673ffffffffffffffffffffffffffffffffffffffff166340c10f1983836040518363ffffffff1660e01b81526004016105a9929190611320565b600060405180830381600087803b1580156105c357600080fd5b505af11580156105d7573d6000803e3d6000fd5b50505050809350505050919050565b600080600560008481526020019081526020016000206040518060800160405290816000820160009054906101000a900473ffffffffffffffffffffffffffffffffffffffff1673ffffffffffffffffffffffffffffffffffffffff1673ffffffffffffffffffffffffffffffffffffffff16815260200160018201548152602001600282015481526020016003820154815250509050606460025482602001516106919190611349565b61069b91906113ba565b6004548260600151426106ae91906113eb565b6106b891906113ba565b6106c29190611349565b81604001516106d191906112ec565b915050919050565b600080600560008581526020019081526020016000206040518060800160405290816000820160009054906101000a900473ffffffffffffffffffffffffffffffffffffffff1673ffffffffffffffffffffffffffffffffffffffff1673ffffffffffffffffffffffffffffffffffffffff16815260200160018201548152602001600282015481526020016003820154815250509050606460025482602001516107849190611349565b61078e91906113ba565b6004548260600151856107a191906113eb565b6107ab91906113ba565b6107b59190611349565b81604001516107c491906112ec565b91505092915050565b60045481565b6107db610e1c565b6107e56000610ea3565b565b6000806107f2610f7a565b90508060000160009054906101000a900473ffffffffffffffffffffffffffffffffffffffff1691505090565b60015481565b600360009054906101000a900473ffffffffffffffffffffffffffffffffffffffff1681565b60008042905060008085036109315760405180608001604052803373ffffffffffffffffffffffffffffffffffffffff168152602001858152602001600081526020018381525060056000600154815260200190815260200160002060008201518160000160006101000a81548173ffffffffffffffffffffffffffffffffffffffff021916908373ffffffffffffffffffffffffffffffffffffffff1602179055506020820151816001015560408201518160020155606082015181600301559050506001549050600160008154809291906109279061141f565b9190505550610a85565b6000600560008781526020019081526020016000206040518060800160405290816000820160009054906101000a900473ffffffffffffffffffffffffffffffffffffffff1673ffffffffffffffffffffffffffffffffffffffff1673ffffffffffffffffffffffffffffffffffffffff168152602001600182015481526020016002820154815260200160038201548152505090506004548160600151846109da91906113eb565b6109e491906113ba565b606460025483602001516109f89190611349565b610a0291906113ba565b610a0c9190611349565b600560008881526020019081526020016000206002016000828254610a3191906112ec565b9250508190555084600560008881526020019081526020016000206001016000828254610a5e91906112ec565b92505081905550826005600088815260200190815260200160002060030181905550859150505b600360009054906101000a900473ffffffffffffffffffffffffffffffffffffffff1673ffffffffffffffffffffffffffffffffffffffff166323b872dd3360008054906101000a900473ffffffffffffffffffffffffffffffffffffffff16876040518463ffffffff1660e01b8152600401610b0493929190611467565b6020604051808303816000875af1158015610b23573d6000803e3d6000fd5b505050506040513d601f19601f82011682018060405250810190610b4791906114d6565b50809250505092915050565b6000610b5d610fa2565b905060008160000160089054906101000a900460ff1615905060008260000160009054906101000a900467ffffffffffffffff1690506000808267ffffffffffffffff16148015610bab5750825b9050600060018367ffffffffffffffff16148015610be0575060003073ffffffffffffffffffffffffffffffffffffffff163b145b905081158015610bee575080155b15610c25576040517ff92ee8a900000000000000000000000000000000000000000000000000000000815260040160405180910390fd5b60018560000160006101000a81548167ffffffffffffffff021916908367ffffffffffffffff1602179055508315610c755760018560000160086101000a81548160ff0219169083151502179055505b60018081905550876000806101000a81548173ffffffffffffffffffffffffffffffffffffffff021916908373ffffffffffffffffffffffffffffffffffffffff16021790555088600360006101000a81548173ffffffffffffffffffffffffffffffffffffffff021916908373ffffffffffffffffffffffffffffffffffffffff16021790555086600481905550856002819055508315610d675760008560000160086101000a81548160ff0219169083151502179055507fc7f505b2f371ae2175ee4913f4499e1f2633a7b5936321eed1cdaeb6115181d26001604051610d5e9190611552565b60405180910390a15b505050505050505050565b610d7a610e1c565b600073ffffffffffffffffffffffffffffffffffffffff168173ffffffffffffffffffffffffffffffffffffffff1603610dec5760006040517f1e4fbdf7000000000000000000000000000000000000000000000000000000008152600401610de3919061112a565b60405180910390fd5b610df581610ea3565b50565b60008054906101000a900473ffffffffffffffffffffffffffffffffffffffff1681565b610e24610fca565b73ffffffffffffffffffffffffffffffffffffffff16610e426107e7565b73ffffffffffffffffffffffffffffffffffffffff1614610ea157610e65610fca565b6040517f118cdaa7000000000000000000000000000000000000000000000000000000008152600401610e98919061112a565b60405180910390fd5b565b6000610ead610f7a565b905060008160000160009054906101000a900473ffffffffffffffffffffffffffffffffffffffff169050828260000160006101000a81548173ffffffffffffffffffffffffffffffffffffffff021916908373ffffffffffffffffffffffffffffffffffffffff1602179055508273ffffffffffffffffffffffffffffffffffffffff168173ffffffffffffffffffffffffffffffffffffffff167f8be0079c531659141344cd1fd0a4f28419497f9722a3daafe3b4186f6b6457e060405160405180910390a3505050565b60007f9016d09d72d40fdae2fd8ceac6b6234c7706214fd39c1cd1e609a0528c199300905090565b60007ff0c57e16840df040f15088dc2f81fe391c3923bec73e23a9662efc9c229c6a00905090565b600033905090565b600080fd5b6000819050919050565b610fea81610fd7565b8114610ff557600080fd5b50565b60008135905061100781610fe1565b92915050565b60006020828403121561102357611022610fd2565b5b600061103184828501610ff8565b91505092915050565b600073ffffffffffffffffffffffffffffffffffffffff82169050919050565b60006110658261103a565b9050919050565b6110758161105a565b82525050565b61108481610fd7565b82525050565b600060808201905061109f600083018761106c565b6110ac602083018661107b565b6110b9604083018561107b565b6110c6606083018461107b565b95945050505050565b60006020820190506110e4600083018461107b565b92915050565b6000806040838503121561110157611100610fd2565b5b600061110f85828601610ff8565b925050602061112085828601610ff8565b9150509250929050565b600060208201905061113f600083018461106c565b92915050565b6000819050919050565b600061116a6111656111608461103a565b611145565b61103a565b9050919050565b600061117c8261114f565b9050919050565b600061118e82611171565b9050919050565b61119e81611183565b82525050565b60006020820190506111b96000830184611195565b92915050565b60006111ca8261105a565b9050919050565b6111da816111bf565b81146111e557600080fd5b50565b6000813590506111f7816111d1565b92915050565b6112068161105a565b811461121157600080fd5b50565b600081359050611223816111fd565b92915050565b6000806000806080858703121561124357611242610fd2565b5b6000611251878288016111e8565b945050602061126287828801611214565b935050604061127387828801610ff8565b925050606061128487828801610ff8565b91505092959194509250565b6000602082840312156112a6576112a5610fd2565b5b60006112b484828501611214565b91505092915050565b7f4e487b7100000000000000000000000000000000000000000000000000000000600052601160045260246000fd5b60006112f782610fd7565b915061130283610fd7565b925082820190508082111561131a576113196112bd565b5b92915050565b6000604082019050611335600083018561106c565b611342602083018461107b565b9392505050565b600061135482610fd7565b915061135f83610fd7565b925082820261136d81610fd7565b91508282048414831517611384576113836112bd565b5b5092915050565b7f4e487b7100000000000000000000000000000000000000000000000000000000600052601260045260246000fd5b60006113c582610fd7565b91506113d083610fd7565b9250826113e0576113df61138b565b5b828204905092915050565b60006113f682610fd7565b915061140183610fd7565b9250828203905081811115611419576114186112bd565b5b92915050565b600061142a82610fd7565b91507fffffffffffffffffffffffffffffffffffffffffffffffffffffffffffffffff820361145c5761145b6112bd565b5b600182019050919050565b600060608201905061147c600083018661106c565b611489602083018561106c565b611496604083018461107b565b949350505050565b60008115159050919050565b6114b38161149e565b81146114be57600080fd5b50565b6000815190506114d0816114aa565b92915050565b6000602082840312156114ec576114eb610fd2565b5b60006114fa848285016114c1565b91505092915050565b6000819050919050565b600067ffffffffffffffff82169050919050565b600061153c61153761153284611503565b611145565b61150d565b9050919050565b61154c81611521565b82525050565b60006020820190506115676000830184611543565b9291505056fea2646970667358221220578b5722f3943170c81ce47118ea27cf332b7668a77a7b0e05df57d78db5345964736f6c63430008180033",
  "linkReferences": {},
  "deployedLinkReferences": {}
}